{
  "_format": "hh-sol-artifact-1",
  "contractName": "UtilityApp",
  "sourceName": "contracts/utilityApp.sol",
  "abi": [
    {
      "inputs": [
        {
          "internalType": "address",
          "name": "walletAddress",
          "type": "address"
        }
      ],
      "name": "checkUserExists",
      "outputs": [
        {
          "internalType": "bool",
          "name": "",
          "type": "bool"
        }
      ],
      "stateMutability": "view",
      "type": "function"
    },
    {
      "inputs": [
        {
          "internalType": "string",
          "name": "userName",
          "type": "string"
        },
        {
          "internalType": "string",
          "name": "_RSA_Public_Key",
          "type": "string"
        }
      ],
      "name": "createAccount",
      "outputs": [],
      "stateMutability": "nonpayable",
      "type": "function"
    },
    {
      "inputs": [
        {
          "internalType": "string",
          "name": "username",
          "type": "string"
        }
      ],
      "name": "findUser",
      "outputs": [
        {
          "components": [
            {
              "internalType": "string",
              "name": "name",
              "type": "string"
            },
            {
              "internalType": "address",
              "name": "userAddress",
              "type": "address"
            },
            {
              "internalType": "string",
              "name": "RSA_Key",
              "type": "string"
            }
          ],
          "internalType": "struct UtilityApp.user",
          "name": "",
          "type": "tuple"
        }
      ],
      "stateMutability": "view",
      "type": "function"
    },
    {
      "inputs": [
        {
          "internalType": "address",
          "name": "from",
          "type": "address"
        },
        {
          "internalType": "address",
          "name": "to",
          "type": "address"
        }
      ],
      "name": "readMessage",
      "outputs": [
        {
          "components": [
            {
              "internalType": "address",
              "name": "sender",
              "type": "address"
            },
            {
              "internalType": "uint256",
              "name": "timestamp",
              "type": "uint256"
            },
            {
              "internalType": "string",
              "name": "msg",
              "type": "string"
            },
            {
              "internalType": "string",
              "name": "msgType",
              "type": "string"
            }
          ],
          "internalType": "struct UtilityApp.message[]",
          "name": "",
          "type": "tuple[]"
        }
      ],
      "stateMutability": "view",
      "type": "function"
    },
    {
      "inputs": [
        {
          "internalType": "address",
          "name": "from",
          "type": "address"
        },
        {
          "internalType": "address",
          "name": "to",
          "type": "address"
        },
        {
          "internalType": "string",
          "name": "_msg",
          "type": "string"
        },
        {
          "internalType": "string",
          "name": "msgType",
          "type": "string"
        }
      ],
      "name": "sendMessage",
      "outputs": [],
      "stateMutability": "nonpayable",
      "type": "function"
    },
    {
      "inputs": [
        {
          "internalType": "string",
          "name": "newRSAkey",
          "type": "string"
        }
      ],
      "name": "updateRSAkey",
      "outputs": [],
      "stateMutability": "nonpayable",
      "type": "function"
    },
    {
      "inputs": [
        {
          "internalType": "address",
          "name": "",
          "type": "address"
        }
      ],
      "name": "userList",
      "outputs": [
        {
          "internalType": "string",
          "name": "name",
          "type": "string"
        },
        {
          "internalType": "address",
          "name": "userAddress",
          "type": "address"
        },
        {
          "internalType": "string",
          "name": "RSA_Key",
          "type": "string"
        }
      ],
      "stateMutability": "view",
      "type": "function"
    },
    {
      "inputs": [],
      "name": "viewRSAKey",
      "outputs": [
        {
          "internalType": "string",
          "name": "",
          "type": "string"
        }
      ],
      "stateMutability": "view",
      "type": "function"
    }
  ],
  "bytecode": "0x608060405234801561001057600080fd5b50611cdd806100206000396000f3fe608060405234801561001057600080fd5b50600436106100885760003560e01c80632006b1c21161005b5780632006b1c2146101275780632b07439f146101575780632e664174146101735780636a291dce146101a357610088565b8063133f50f51461008d57806317eac796146100bd57806319289287146100d95780631b4e7bd2146100f5575b600080fd5b6100a760048036038101906100a29190610eea565b6101c1565b6040516100b49190610f32565b60405180910390f35b6100d760048036038101906100d29190611093565b61021a565b005b6100f360048036038101906100ee919061113c565b6102bb565b005b61010f600480360381019061010a9190610eea565b610485565b60405161011e93929190611246565b60405180910390f35b610141600480360381019061013c9190611093565b6105df565b60405161014e919061133b565b60405180910390f35b610171600480360381019061016c919061135d565b6107f5565b005b61018d60048036038101906101889190611404565b610a8a565b60405161019a9190611589565b60405180910390f35b6101ab610cd8565b6040516101b891906115ab565b60405180910390f35b6000806000808473ffffffffffffffffffffffffffffffffffffffff1673ffffffffffffffffffffffffffffffffffffffff1681526020019081526020016000206000018054610210906115fc565b9050119050919050565b60011515610227336101c1565b151514610269576040517f08c379a000000000000000000000000000000000000000000000000000000000815260040161026090611679565b60405180910390fd5b806000803373ffffffffffffffffffffffffffffffffffffffff1673ffffffffffffffffffffffffffffffffffffffff16815260200190815260200160002060020190816102b79190611845565b5050565b60008383905011610301576040517f08c379a00000000000000000000000000000000000000000000000000000000081526004016102f890611963565b60405180910390fd5b82826000803373ffffffffffffffffffffffffffffffffffffffff1673ffffffffffffffffffffffffffffffffffffffff168152602001908152602001600020600001918261035192919061198e565b50336000803373ffffffffffffffffffffffffffffffffffffffff1673ffffffffffffffffffffffffffffffffffffffff16815260200190815260200160002060010160006101000a81548173ffffffffffffffffffffffffffffffffffffffff021916908373ffffffffffffffffffffffffffffffffffffffff160217905550806000803373ffffffffffffffffffffffffffffffffffffffff1673ffffffffffffffffffffffffffffffffffffffff16815260200190815260200160002060020190816104209190611845565b503360018484604051610434929190611a8e565b908152602001604051809103902060006101000a81548173ffffffffffffffffffffffffffffffffffffffff021916908373ffffffffffffffffffffffffffffffffffffffff160217905550505050565b60006020528060005260406000206000915090508060000180546104a8906115fc565b80601f01602080910402602001604051908101604052809291908181526020018280546104d4906115fc565b80156105215780601f106104f657610100808354040283529160200191610521565b820191906000526020600020905b81548152906001019060200180831161050457829003601f168201915b5050505050908060010160009054906101000a900473ffffffffffffffffffffffffffffffffffffffff169080600201805461055c906115fc565b80601f0160208091040260200160405190810160405280929190818152602001828054610588906115fc565b80156105d55780601f106105aa576101008083540402835291602001916105d5565b820191906000526020600020905b8154815290600101906020018083116105b857829003601f168201915b5050505050905083565b6105e7610e41565b60006001836040516105f99190611ad8565b908152602001604051809103902060009054906101000a900473ffffffffffffffffffffffffffffffffffffffff1690506000808273ffffffffffffffffffffffffffffffffffffffff1673ffffffffffffffffffffffffffffffffffffffff168152602001908152602001600020604051806060016040529081600082018054610683906115fc565b80601f01602080910402602001604051908101604052809291908181526020018280546106af906115fc565b80156106fc5780601f106106d1576101008083540402835291602001916106fc565b820191906000526020600020905b8154815290600101906020018083116106df57829003601f168201915b505050505081526020016001820160009054906101000a900473ffffffffffffffffffffffffffffffffffffffff1673ffffffffffffffffffffffffffffffffffffffff1673ffffffffffffffffffffffffffffffffffffffff16815260200160028201805461076b906115fc565b80601f0160208091040260200160405190810160405280929190818152602001828054610797906115fc565b80156107e45780601f106107b9576101008083540402835291602001916107e4565b820191906000526020600020905b8154815290600101906020018083116107c757829003601f168201915b505050505081525050915050919050565b3373ffffffffffffffffffffffffffffffffffffffff168673ffffffffffffffffffffffffffffffffffffffff1614610863576040517f08c379a000000000000000000000000000000000000000000000000000000000815260040161085a90611b3b565b60405180910390fd5b61086c336101c1565b6108ab576040517f08c379a00000000000000000000000000000000000000000000000000000000081526004016108a290611ba7565b60405180910390fd5b6108b4856101c1565b6108f3576040517f08c379a00000000000000000000000000000000000000000000000000000000081526004016108ea90611c13565b60405180910390fd5b60006108ff8787610da9565b9050600060405180608001604052803373ffffffffffffffffffffffffffffffffffffffff16815260200142815260200187878080601f016020809104026020016040519081016040528093929190818152602001838380828437600081840152601f19601f82011690508083019250505050505050815260200185858080601f016020809104026020016040519081016040528093929190818152602001838380828437600081840152601f19601f8201169050808301925050505050505081525090506002600083815260200190815260200160002081908060018154018082558091505060019003906000526020600020906004020160009091909190915060008201518160000160006101000a81548173ffffffffffffffffffffffffffffffffffffffff021916908373ffffffffffffffffffffffffffffffffffffffff160217905550602082015181600101556040820151816002019081610a679190611845565b506060820151816003019081610a7d9190611845565b5050505050505050505050565b6060610a95826101c1565b610ad4576040517f08c379a0000000000000000000000000000000000000000000000000000000008152600401610acb90611ba7565b60405180910390fd5b6000610ae08484610da9565b905060026000828152602001908152602001600020805480602002602001604051908101604052809291908181526020016000905b82821015610ccb57838290600052602060002090600402016040518060800160405290816000820160009054906101000a900473ffffffffffffffffffffffffffffffffffffffff1673ffffffffffffffffffffffffffffffffffffffff1673ffffffffffffffffffffffffffffffffffffffff16815260200160018201548152602001600282018054610ba8906115fc565b80601f0160208091040260200160405190810160405280929190818152602001828054610bd4906115fc565b8015610c215780601f10610bf657610100808354040283529160200191610c21565b820191906000526020600020905b815481529060010190602001808311610c0457829003601f168201915b50505050508152602001600382018054610c3a906115fc565b80601f0160208091040260200160405190810160405280929190818152602001828054610c66906115fc565b8015610cb35780601f10610c8857610100808354040283529160200191610cb3565b820191906000526020600020905b815481529060010190602001808311610c9657829003601f168201915b50505050508152505081526020019060010190610b15565b5050505091505092915050565b60606000803373ffffffffffffffffffffffffffffffffffffffff1673ffffffffffffffffffffffffffffffffffffffff1681526020019081526020016000206002018054610d26906115fc565b80601f0160208091040260200160405190810160405280929190818152602001828054610d52906115fc565b8015610d9f5780601f10610d7457610100808354040283529160200191610d9f565b820191906000526020600020905b815481529060010190602001808311610d8257829003601f168201915b5050505050905090565b60008173ffffffffffffffffffffffffffffffffffffffff168373ffffffffffffffffffffffffffffffffffffffff161015610e0f578282604051602001610df2929190611c7b565b604051602081830303815290604052805190602001209050610e3b565b8183604051602001610e22929190611c7b565b6040516020818303038152906040528051906020012090505b92915050565b604051806060016040528060608152602001600073ffffffffffffffffffffffffffffffffffffffff168152602001606081525090565b6000604051905090565b600080fd5b600080fd5b600073ffffffffffffffffffffffffffffffffffffffff82169050919050565b6000610eb782610e8c565b9050919050565b610ec781610eac565b8114610ed257600080fd5b50565b600081359050610ee481610ebe565b92915050565b600060208284031215610f0057610eff610e82565b5b6000610f0e84828501610ed5565b91505092915050565b60008115159050919050565b610f2c81610f17565b82525050565b6000602082019050610f476000830184610f23565b92915050565b600080fd5b600080fd5b6000601f19601f8301169050919050565b7f4e487b7100000000000000000000000000000000000000000000000000000000600052604160045260246000fd5b610fa082610f57565b810181811067ffffffffffffffff82111715610fbf57610fbe610f68565b5b80604052505050565b6000610fd2610e78565b9050610fde8282610f97565b919050565b600067ffffffffffffffff821115610ffe57610ffd610f68565b5b61100782610f57565b9050602081019050919050565b82818337600083830152505050565b600061103661103184610fe3565b610fc8565b90508281526020810184848401111561105257611051610f52565b5b61105d848285611014565b509392505050565b600082601f83011261107a57611079610f4d565b5b813561108a848260208601611023565b91505092915050565b6000602082840312156110a9576110a8610e82565b5b600082013567ffffffffffffffff8111156110c7576110c6610e87565b5b6110d384828501611065565b91505092915050565b600080fd5b600080fd5b60008083601f8401126110fc576110fb610f4d565b5b8235905067ffffffffffffffff811115611119576111186110dc565b5b602083019150836001820283011115611135576111346110e1565b5b9250929050565b60008060006040848603121561115557611154610e82565b5b600084013567ffffffffffffffff81111561117357611172610e87565b5b61117f868287016110e6565b9350935050602084013567ffffffffffffffff8111156111a2576111a1610e87565b5b6111ae86828701611065565b9150509250925092565b600081519050919050565b600082825260208201905092915050565b60005b838110156111f25780820151818401526020810190506111d7565b60008484015250505050565b6000611209826111b8565b61121381856111c3565b93506112238185602086016111d4565b61122c81610f57565b840191505092915050565b61124081610eac565b82525050565b6000606082019050818103600083015261126081866111fe565b905061126f6020830185611237565b818103604083015261128181846111fe565b9050949350505050565b600082825260208201905092915050565b60006112a7826111b8565b6112b1818561128b565b93506112c18185602086016111d4565b6112ca81610f57565b840191505092915050565b6112de81610eac565b82525050565b60006060830160008301518482036000860152611301828261129c565b915050602083015161131660208601826112d5565b506040830151848203604086015261132e828261129c565b9150508091505092915050565b6000602082019050818103600083015261135581846112e4565b905092915050565b6000806000806000806080878903121561137a57611379610e82565b5b600061138889828a01610ed5565b965050602061139989828a01610ed5565b955050604087013567ffffffffffffffff8111156113ba576113b9610e87565b5b6113c689828a016110e6565b9450945050606087013567ffffffffffffffff8111156113e9576113e8610e87565b5b6113f589828a016110e6565b92509250509295509295509295565b6000806040838503121561141b5761141a610e82565b5b600061142985828601610ed5565b925050602061143a85828601610ed5565b9150509250929050565b600081519050919050565b600082825260208201905092915050565b6000819050602082019050919050565b6000819050919050565b61148381611470565b82525050565b60006080830160008301516114a160008601826112d5565b5060208301516114b4602086018261147a565b50604083015184820360408601526114cc828261129c565b915050606083015184820360608601526114e6828261129c565b9150508091505092915050565b60006114ff8383611489565b905092915050565b6000602082019050919050565b600061151f82611444565b611529818561144f565b93508360208202850161153b85611460565b8060005b85811015611577578484038952815161155885826114f3565b945061156383611507565b925060208a0199505060018101905061153f565b50829750879550505050505092915050565b600060208201905081810360008301526115a38184611514565b905092915050565b600060208201905081810360008301526115c581846111fe565b905092915050565b7f4e487b7100000000000000000000000000000000000000000000000000000000600052602260045260246000fd5b6000600282049050600182168061161457607f821691505b602082108103611627576116266115cd565b5b50919050565b7f63616c6c6572206973206e6f74206d656d626572000000000000000000000000600082015250565b60006116636014836111c3565b915061166e8261162d565b602082019050919050565b6000602082019050818103600083015261169281611656565b9050919050565b60008190508160005260206000209050919050565b60006020601f8301049050919050565b600082821b905092915050565b6000600883026116fb7fffffffffffffffffffffffffffffffffffffffffffffffffffffffffffffffff826116be565b61170586836116be565b95508019841693508086168417925050509392505050565b6000819050919050565b600061174261173d61173884611470565b61171d565b611470565b9050919050565b6000819050919050565b61175c83611727565b61177061176882611749565b8484546116cb565b825550505050565b600090565b611785611778565b611790818484611753565b505050565b5b818110156117b4576117a960008261177d565b600181019050611796565b5050565b601f8211156117f9576117ca81611699565b6117d3846116ae565b810160208510156117e2578190505b6117f66117ee856116ae565b830182611795565b50505b505050565b600082821c905092915050565b600061181c600019846008026117fe565b1980831691505092915050565b6000611835838361180b565b9150826002028217905092915050565b61184e826111b8565b67ffffffffffffffff81111561186757611866610f68565b5b61187182546115fc565b61187c8282856117b8565b600060209050601f8311600181146118af576000841561189d578287015190505b6118a78582611829565b86555061190f565b601f1984166118bd86611699565b60005b828110156118e5578489015182556001820191506020850194506020810190506118c0565b8683101561190257848901516118fe601f89168261180b565b8355505b6001600288020188555050505b505050505050565b7f557365726e616d652063616e6e6f7420626520656d7074792100000000000000600082015250565b600061194d6019836111c3565b915061195882611917565b602082019050919050565b6000602082019050818103600083015261197c81611940565b9050919050565b600082905092915050565b6119988383611983565b67ffffffffffffffff8111156119b1576119b0610f68565b5b6119bb82546115fc565b6119c68282856117b8565b6000601f8311600181146119f557600084156119e3578287013590505b6119ed8582611829565b865550611a55565b601f198416611a0386611699565b60005b82811015611a2b57848901358255600182019150602085019450602081019050611a06565b86831015611a485784890135611a44601f89168261180b565b8355505b6001600288020188555050505b50505050505050565b600081905092915050565b6000611a758385611a5e565b9350611a82838584611014565b82840190509392505050565b6000611a9b828486611a69565b91508190509392505050565b6000611ab2826111b8565b611abc8185611a5e565b9350611acc8185602086016111d4565b80840191505092915050565b6000611ae48284611aa7565b915081905092915050565b7f53656e646572206d75737420626520206163636f756e74206f776e6572000000600082015250565b6000611b25601d836111c3565b9150611b3082611aef565b602082019050919050565b60006020820190508181036000830152611b5481611b18565b9050919050565b7f43726561746520616e206163636f756e74206669727374210000000000000000600082015250565b6000611b916018836111c3565b9150611b9c82611b5b565b602082019050919050565b60006020820190508181036000830152611bc081611b84565b9050919050565b7f55736572206973206e6f74207265676973746572656421000000000000000000600082015250565b6000611bfd6017836111c3565b9150611c0882611bc7565b602082019050919050565b60006020820190508181036000830152611c2c81611bf0565b9050919050565b60008160601b9050919050565b6000611c4b82611c33565b9050919050565b6000611c5d82611c40565b9050919050565b611c75611c7082610eac565b611c52565b82525050565b6000611c878285611c64565b601482019150611c978284611c64565b601482019150819050939250505056fea264697066735822122017f0244139fa8d4ccc1b57fdff8ba60577e952ac071d16e3af0be3737f6f2df064736f6c63430008100033",
  "linkReferences": {},
  "deployedLinkReferences": {}
}